:020000040800F2
:100000000000022055070008390700083B070008D8
:100010003D0700083F0700084107000800000000F6
:10002000000000000000000000000000430700087E
:1000300045070008000000004707000849070008BE
:10004000A5070008A5070008A5070008A5070008E0
:10005000A5070008A5070008A5070008A5070008D0
:10006000A5070008A5070008A5070008A5070008C0
:10007000A5070008A5070008A5070008A5070008B0
:10008000A5070008A5070008A5070008A5070008A0
:10009000A5070008A5070008A5070008A507000890
:1000A000A5070008A5070008A5070008A507000880
:1000B000A5070008A5070008A5070008A507000870
:1000C000A5070008A5070008A5070008A507000860
:1000D000A5070008A5070008A5070008A507000850
:1000E000A5070008A5070008A5070008A507000840
:1000F000A5070008A5070008A5070008A507000830
:10010000A5070008A5070008A5070008A50700081F
:10011000A5070008A5070008A5070008A50700080F
:10012000A5070008A5070008A5070008A5070008FF
:10013000A50700080000000000000000A507000857
:10014000A5070008A5070008A5070008A5070008DF
:10015000A5070008A5070008A5070008A5070008CF
:10016000A5070008A5070008A5070008A5070008BF
:10017000A5070008A5070008A50700080000000063
:1001800000000000A50700080000000000000000BB
:10019000A50700080000000000000000A5070008F7
:1001A000000000000000000000000000A50700089B
:1001B000A5070008A5070008A5070008A50700086F
:0401C000A507000887
:1001C40010B5054C237833B9044B13B10448AFF38D
:1001D40000800123237010BD1000002000000000E7
:1001E4002017000808B5034B1BB103490348AFF3BC
:1001F400008008BD00000000140000202017000843
:1002040053B94AB9002908BF00281CBF4FF0FF3179
:100214004FF0FF3000F088B9ADF1080C6DE904CE61
:1002240000F006F8DDF804E0DDE9022304B07047CD
:100234002DE9F047089D8E4604468846002B4AD196
:100244008A42174662D9B2FA82F64EB1C6F1200349
:1002540001FA06F820FA03F3B74043EA0808B44069
:100264004FEA174E1FFA87FCB8FBFEF1230C0EFB76
:10027400118843EA084301FB0CF29A4209D9FB189E
:1002840001F1FF3080F0EA809A4240F2E7800239BF
:100294003B449A1AA3B2B2FBFEF00EFB102243EACF
:1002A400024300FB0CFC9C4509D9FB1800F1FF320A
:1002B40080F0D6809C4540F2D3803B44023840EA2B
:1002C4000140A3EB0C0300211DB1F3400022C5E95A
:1002D4000032BDE8F0878B4205D90DB1C5E90001B4
:1002E40000210846F5E7B3FA83F1002946D17345A6
:1002F40002D3824200F20581841A6EEB03020120CC
:100304009046002DE5D0C5E90048E2E7002A00F058
:100314009080B2FA82F6002E40F0A4808A1A030C70
:100324004FEA174E80B2BCB20121B2FBFEFC0EFBB9
:100334001C2243EA024304FB0CF29A4207D9FB183D
:100344000CF1FF3802D29A4200F2E080C4469B1AB4
:10035400B3FBFEF20EFB123340EA034302FB04F448
:100364009C4207D9FB1802F1FF3002D29C4200F2F2
:10037400CA8002461B1B42EA0C40A5E7C1F12006D5
:100384008B4022FA06F71F430EFA01F420FA06F313
:100394002EFA06FE4FEA1749234300FA01F81FFA22
:1003A40087FCBEFBF9F01C0C09FB10EE44EA0E447A
:1003B40000FB0CFEA64502FA01F209D93C1900F132
:1003C400FF3A80F09C80A64540F2998002383C4474
:1003D400A4EB0E041FFA83FEB4FBF9F309FB1344E8
:1003E4004EEA044403FB0CFCA44508D93C1903F170
:1003F400FF3E80F08280A4457FD9023B3C4443EA1F
:100404000040A4EB0C04A0FB02EC64457346E146F7
:1004140062D35FD05DB1B8EB030264EB090404FA64
:1004240006F622FA01F31E43CC40C5E9006400211C
:100434004FE7B1FBF2FC010C41EA0E4180B240EA05
:1004440001423B4638463C46B846BE462026B1FBF0
:10045400F7F1A2EB080241EA0C4166E7014618E70E
:1004640010462CE7C6F120022EFA02F3B740B14041
:1004740020FA02F24FEA174E0A43B3FBFEF8BCB26D
:100484000EFB1833110C41EA034108FB04F9B04098
:1004940089454FEA104380B23ED9791808F1FF3CF0
:1004A40001D289451FD8A1EB0901B1FBFEF909FB73
:1004B40004F80EFB191192B242EA0142424529D2D4
:1004C400BA1809F1FF31C4D24245C2D2A9F10201DE
:1004D4003A44BEE7F0459DD2BEEB02036CEB070C39
:1004E4000138E14696E7A7EB09094944A8F1020C53
:1004F400B1FBFEF909FB04F8DBE773467FE75046DE
:1005040066E70846FDE63B44023A33E7ACF1020CE9
:100514003B441CE749469CE7A1EB0901C446B1FBF7
:10052400FEF909FB04F8C4E7704700BF10B50024C6
:10053400FF2C0BD00A2301222146064800F016FCAA
:1005440010B10134E4B2F3E7204610BD4FF0FF30A0
:10055400FBE700BF3000002084B000220192104B62
:10056400196B41F080011963196B01F0800101914D
:1005740001990292196B41F001011963196B01F0A1
:1005840001010291029903921A6B42F002021A636A
:100594001B6B03F002030393039B04B0704700BF7B
:1005A4000038024072B6FEE708B50A480A4B0360F9
:1005B4000A4B436000238360C3604FF480420261AE
:1005C40043618361C361036200F0F2FA00B908BDBC
:1005D400FFF7E8FF3000002000540040A08601002F
:1005E40000B595B03422002107A801F005F80023D6
:1005F400029303930493059306930093194A116C91
:1006040041F080511164126C02F080520092009A01
:10061400019315490A6822F4404242F480420A6078
:100624000A6802F440420192019A022207920122CE
:100634000A9210220B920D9307A800F0BBFD68B933
:100644000F2302930021039104910591069102A8BE
:1006540000F056FC20B915B05DF804FBFFF7A2FFCB
:10066400FFF7A0FF003802400070004008B500F01A
:10067400BFF8FFF7B5FFFFF76FFFFFF795FFFFF731
:1006840055FF014B1860FEE72C00002082B00021CA
:1006940000910B4B5A6C42F480425A645A6C02F437
:1006A40080420092009A01911A6C42F080521A64BE
:1006B4001B6C03F080530193019B02B0704700BF91
:1006C4000038024030B589B00023039304930593A6
:1006D400069307930268144B9A4201D009B030BDC7
:1006E40000250195114C236B43F002032363236B14
:1006F40003F002030193019BC02303931223049389
:10070400032306930423079303A9094800F006F979
:100714000295236C43F400132364236C03F4001345
:100724000293029BDAE700BF005400400038024005
:1007340000040240FEE7FEE7FEE7FEE7FEE770473F
:100744007047704708B500F06DF808BD70470000A9
:10075400DFF834D0FFF7FAFF0C480D490D4A0023A7
:1007640002E0D458C4500433C4188C42F9D30A4A62
:100774000A4C002301E013600432A242FBD300F0D0
:1007840043FFFFF773FF70470000022000000020C2
:100794001000002064170008100000202002002030
:1007A400FEE7000010B504460E4B1A784FF47A7336
:1007B400B3FBF2F30C4A1068B0FBF3F000F09AF8C4
:1007C40068B90F2C01D901200AE0002221464FF01C
:1007D400FF3000F07FF8054B1C60002000E0012092
:1007E40010BD00BF0400002000000020080000200D
:1007F40008B50B4B1A6842F400721A601A6842F486
:1008040080621A601A6842F480721A60032000F051
:100814004FF80F20FFF7C6FFFFF738FF002008BD91
:10082400003C0240034A1168034B1B780B441360DD
:10083400704700BF8400002004000020014B1868AA
:10084400704700BF84000020002808DB0901C9B2FA
:1008540000F1604000F5614080F80013704700F03B
:100864000F000901C9B2014B1954704714ED00E09F
:1008740000B500F00700C0F1070CBCF1040F28BF5D
:100884004FF0040C031D062B0FD9C31E4FF0FF3E7F
:100894000EFA0CF021EA000199400EFA03FE22EA56
:1008A4000E0241EA02005DF804FB0023EEE70000BB
:1008B400074AD36823F4E0631B041B0C000200F412
:1008C400E060034343F0BF6343F40033D3607047F5
:1008D40000ED00E010B50446054BD868C0F30220D3
:1008E400FFF7C6FF01462046FFF7AEFF10BD00BF6D
:1008F40000ED00E00138B0F1807F0BD24FF0E0232F
:100904005861054AF02182F82310002098610722DB
:100914001A6170470120704700ED00E000230F2B9F
:1009240000F2E68030B583B068E085684FEA430E94
:10093400032404FA0EF425EA0405CC6804FA0EF440
:100944002C438460446824EA02044A68C2F3001217
:100954009A40224342605FE0DC08083450F82420C7
:1009640003F00705AD004FF00F0E0EFA05FE22EA64
:100974000E0E0A69AA4042EA0E0240F824205FE003
:10098400062200E0002202FA0EF22A430234594DF4
:1009940045F82420584A94686FEA0C0224EA0C05AE
:1009A400D1F804E01EF4801F01D04CEA0405524C37
:1009B400A560E46802EA0405D1F804E01EF4001F0F
:1009C40001D04CEA04054C4CE560646802EA040575
:1009D400D1F804E01EF4003F01D04CEA0405464C73
:1009E4006560246822404D6815F4803F01D04CEACC
:1009F4000402414C226001330F2B77D801229A4024
:100A04000C6804EA020C32EA0404F4D14C6804F0E1
:100A14000304013C012C88D94A6802F00302032A2A
:100A240009D0C4685D000322AA4024EA02048A684B
:100A3400AA402243C2604A6802F00302022A8BD011
:100A440004684FEA430E032202FA0EF224EA020477
:100A54004A6802F0030202FA0EF2224302604A6874
:100A640012F4403FC7D000220192244A546C44F44B
:100A740080445464526C02F480420192019A9C08AE
:100A8400A51C1C4A52F8255003F0030E4FEA8E0EA3
:100A94000F2202FA0EF225EA0205194A90423FF4A7
:100AA40071AF02F58062904216D002F580629042E6
:100AB40014D002F58062904212D002F58062904216
:100AC40010D002F5806290420ED002F5806290420E
:100AD4003FF456AF072256E7012254E7022252E7B9
:100AE400032250E704224EE705224CE703B030BD51
:100AF400704700BF00380140003C0140003802400C
:100B0400000002402DE9F04106460C46174698467F
:100B14003BE0FFF793FE069BC01A404502D8B8F1AC
:100B2400000F32D1012D18D033689B6924EA0303E6
:100B34009BB2B3FA83F35B099F4226D1002333634C
:100B4400202286F83D2086F83E30326C42F02002A6
:100B5400326486F83C30012027E033685B6924EA7C
:100B640003039BB2B3FA83F35B09E5E733685B697C
:100B740024EA030C1FFA8CFCBCFA8CFC4FEA5C1CC4
:100B8400674511D1B8F1FF3FC3D1C4F30745012D27
:100B9400ECD033689B6924EA030C1FFA8CFCBCFA82
:100BA4008CFC4FEA5C1CEBE70020BDE8F081000000
:100BB400002800F0CC8070B5044690F83D30002B3E
:100BC40077D0242384F83D302268136823F001038E
:100BD40013602268136843F40043136022681368A7
:100BE40023F40043136000F041FA62685A4B9A42BE
:100BF40064D85A4B98428CBF00230123002B40F049
:100C0400A8805749A1FB00318B0C25686A6822F043
:100C14003F0242EA91426A6021680A6A22F03F0276
:100C240066684D4DAE424FD8013313430B622168C1
:100C3400CA6922F44F4222F0FF026568464B9D4286
:100C44004CD8431E6D00B3FBF5F3013340F6FC7042
:100C5400034278D0C3F30B031A43CA6121680B68BB
:100C640023F0C003E269206A024313430B60216846
:100C74008B6823F4034323F0FF032269E0680243F3
:100C840013438B602168CB6823F0FF036269A0697A
:100C940002431343CB602268136843F001031360DB
:100CA40000202064202384F83D30206384F83E0033
:100CB40070BD80F83C30FFF705FD82E7294B984270
:100CC4008CBF0023012399E74FF4967505FB03F3CA
:100CD400254DA5FB03539B090133A6E7A668BEB9BE
:100CE400431E05EB450CB3FBFCF30133C3F30B03C9
:100CF400B3FA83F35B0943BBC6B9431E05EB450551
:100D0400B3FBF5F30133C3F30B0343F40043A3E74D
:100D1400431E05EB850C0CEB8C0CB3FBFCF301338D
:100D2400C3F30B03B3FA83F35B09E4E7431E05EB58
:100D3400850505EB8505B3FBF5F30133C3F30B031D
:100D440043F4404388E7042386E7012384E7012032
:100D540070470120ACE700BFA08601007F841E001D
:100D640083DE1B43FF083D00D34D62102DE9F043A1
:100D740085B00446884691461D46FFF75FFD94F80A
:100D84003D30DBB2202B03D0022005B0BDE8F08358
:100D9400064600901923012257492046FFF7B2FE68
:100DA400002840F0A08094F83C30012B00F09D8096
:100DB400012384F83C3023681A6812F0010F03D130
:100DC4001A6842F001021A602268136823F400636F
:100DD4001360242384F83D3000272764474BE362E3
:100DE40040E023681B6813F4807F02D04FF4007343
:100DF40023640320C9E7A02384F83D3022685369A3
:100E0400C3F340035269C2F3802294F83DC05FFAF1
:100E14008CFCBCF1A00F09D043B93AB9FFF70EFD21
:100E2400801BA842E7D8002DE8D1E4E7202384F80A
:100E34003D3023685A6912F0020F31D11A6842F426
:100E440000721A6023686FF480625A610096192355
:100E5400012229492046FFF755FE002849D10137D0
:100E64004F4538D22268136843F4807313600096A8
:100E74002B4600224FF001112046FFF743FE0028C5
:100E8400AFD1236808F0FE021A61FFF7D7FC0646CB
:100E940022685369C3F340035269C2F38022B4E762
:100EA4001A6842F400721A600023039323685A6993
:100EB40003929B690393039B0096192301220E4915
:100EC4002046FFF71FFE90B9202384F83D3000230D
:100ED40084F83C3059E7202384F83D30002384F81B
:100EE4003C30012051E702204FE702204DE701206A
:100EF4004BE7012049E700BF020010000000FFFF9C
:100F0400002800F09B8070B50D4604464F4B1B68CB
:100F140003F00F038B4208D2CBB24C4A1370136810
:100F240003F00F038B4240F08B80236813F0020F11
:100F340017D013F0040F04D0454A936843F4E053E8
:100F44009360236813F0080F04D0414A936843F474
:100F5400604393603E4A936823F0F003A1680B4317
:100F64009360236813F0010F32D06368012B21D002
:100F74009A1E012A25D9364A126812F0020F61D04E
:100F840033498A6822F0030213438B60FFF756FC4F
:100F940006462F4B9B6803F00C036268B3EB820F89
:100FA40016D0FFF74BFC801B41F288339842F0D9EE
:100FB400032042E0264A126812F4003FE0D10120E7
:100FC4003BE0234A126812F0007FD9D1012034E0BB
:100FD4001E4B1B6803F00F03AB4207D9EAB21B4B4D
:100FE4001A701B6803F00F03AB422DD1236813F072
:100FF400040F06D0164A936823F4E053E1680B43C8
:101004009360236813F0080F07D0114A936823F400
:101014006043216943EAC103936000F037F80C4B45
:101024009B68C3F303130B4AD35CD8400A4B186084
:101034000A4B1868FFF7B6FB002070BD012070470B
:101044000120FAE70120F8E70120F6E7003C02401E
:10105400003802404017000800000020080000206B
:10106400014B1868704700BF0000002008B5FFF767
:10107400F7FF044B9B68C3F38223034AD35CD84035
:1010840008BD00BF003802403817000808B5464BB9
:101094009B6803F00C03082B05D00C2B43D0042BC6
:1010A4007FD1424819E0404B5A6802F03F025B6826
:1010B40013F4800F12D03C4B5968C1F388113B489C
:1010C4000023A1FB0001FFF79BF8374B5B68C3F3D8
:1010D400014301335B00B0FBF3F008BD324B5868A9
:1010E400C0F388104FEA401CBCEB000C6EEB0E0EF4
:1010F4004FEA8E1343EA9C634FEA8C11B1EB0C0167
:1011040063EB0E03DB0043EA5173C90011EB000CDF
:1011140043F10003990200234FEA8C2041EA9C51D9
:10112400FFF76EF8D1E7204B5A6802F03F025B6884
:1011340013F4800F10D01C4B5968C1F388111B485D
:101144000023A1FB0001FFF75BF8174B5B68C3F3B7
:101154000273B0FBF3F0C0E7134B5868C0F3881078
:101164004FEA401CBCEB000C6EEB0E0E4FEA8E13E4
:1011740043EA9C634FEA8C11B1EB0C0163EB0E0361
:10118400DB0043EA5173C90011EB000C43F1000387
:10119400990200234FEA8C2041EA9C51FFF730F872
:1011A400D3E7034899E700BF0038024040787D0147
:1011B4000024F400002800F0018270B582B00446D7
:1011C400036813F0010F41D0994B9B6803F00C03A3
:1011D400042B32D0964B9B6803F00C03082B27D0CA
:1011E400934B9B6803F00C030C2B59D06368B3F545
:1011F400803F5BD0B3F5A02F5ED08D4B1A6822F4EC
:1012040080321A601A6822F480221A606368002B04
:101214005CD0FFF713FB0546854B1B6813F4003FB6
:1012240014D1FFF70BFB401B6428F5D90320CCE154
:101234007F4B5B6813F4800FD2D07D4B1B6813F493
:10124400003F03D06368002B00F0BA81236813F0D9
:10125400020F60D0764B9B6813F00C0F4AD0744B8E
:101264009B6803F00C03082B3FD0714B9B6803F081
:101274000C030C2B69D0E368002B75D06D4B012255
:101284001A60FFF7DBFA0546694B1B6813F0020F7F
:1012940061D1FFF7D3FA401B0228F5D9032094E16A
:1012A400634B5B6813F4800FA0D0C6E7604A1368F1
:1012B40043F480331360A9E75D4B1A6842F480223B
:1012C4001A601A6842F480321A609FE7FFF7B6FA90
:1012D4000546574B1B6813F4003FB7D0FFF7AEFA2F
:1012E400401B6428F5D903206FE1514B5B6813F46C
:1012F400800FBAD14E4B1B6813F0020F03D0E36882
:10130400012B40F05F814A4A136823F0F8032169F6
:1013140043EAC1031360236813F0080F49D06369DB
:10132400002B33D0434B0122C3F8802EFFF786FAFB
:1013340005463F4B5B6F13F0020F3AD1FFF77EFA7D
:10134400401B0228F5D903203FE1394B5B6813F4B5
:10135400800F90D1CEE7364A136823F0F803216951
:1013640043EAC1031360D6E7324B00221A60FFF749
:1013740065FA05462E4B1B6813F0020FCBD0FFF71E
:101384005DFA401B0228F5D903201EE1294B0022F7
:10139400C3F8802EFFF752FA0546254B5B6F13F016
:1013A400020F06D0FFF74AFA401B0228F5D90320A2
:1013B4000BE1236813F0040F76D01D4B1B6C13F064
:1013C400805F33D100230193194B1A6C42F0805291
:1013D4001A641B6C03F080530193019B0125164B87
:1013E4001B6813F4807F29D0A368012B3AD0052B06
:1013F4003ED00F4B1A6F22F001021A671A6F22F0C7
:1014040004021A67A368002B3CD0FFF717FA0646BC
:10141400074B1B6F13F0020F45D1FFF70FFA801B28
:1014240041F288339842F3D90320CEE00025D6E771
:101434000038024000004742007000406B4A1368C5
:1014440043F480731360FFF7F9F90646674B1B6892
:1014540013F4807FC8D1FFF7F1F9801B0228F5D976
:101464000320B2E0624A136F43F001031367C9E734
:101474005F4B1A6F42F004021A671A6F42F00102BE
:101484001A67BFE7FFF7DAF90646594B1B6F13F0EB
:10149400020F08D0FFF7D2F9801B41F2883398423B
:1014A400F3D9032091E0EDB9A369002B00F08C80FF
:1014B4004F4A926802F00C02082A54D0022B17D02B
:1014C4004C4B00221A66FFF7B9F90446484B1B68D7
:1014D40013F0007F45D0FFF7B1F9001B0228F5D9BE
:1014E400032072E0424A136C23F080531364DBE759
:1014F400404B00221A66FFF7A1F905463C4B1B68D6
:1015040013F0007F06D0FFF799F9401B0228F5D9A4
:1015140003205AE0E369226A1343626A43EA8213AE
:10152400A26A5208013A43EA0243E26A43EA0263C6
:10153400226B43EA02732E4A53602E4B01221A6631
:10154400FFF77CF904462A4B1B6813F0007F06D191
:10155400FFF774F9001B0228F5D9032035E00020B9
:1015640033E0002031E0012B31D0214B5B6803F4E0
:101574008001E26991422CD103F03F02216A8A4240
:1015840029D1616A47F6C0721A40B2EB811F24D197
:1015940003F44031A26A5208013AB1EB024F1ED162
:1015A40003F07062E16AB2EB016F1AD103F0E04319
:1015B400226BB3EB027F16D1002006E001207047B6
:1015C400012002E0012000E0002002B070BD0120F3
:1015D400FBE70120F9E70120F7E70120F5E7012007
:1015E400F3E70120F1E70120EFE700BF00700040BE
:1015F400003802400000474202440346934200D1AF
:10160400704703F8011BF9E770B50D4D0D4C641BD1
:10161400A4100026A64209D10B4D0C4C00F07EF814
:10162400641BA4100026A64205D170BD55F8043BE6
:1016340098470136EEE755F8043B98470136F2E740
:1016440058170008581700085817000860170008B2
:1016540070477047024B13B1024800F005B8704759
:101664000000000079160008002301461A461846B7
:1016740000F014B838B5074D074C641BA4101CB90E
:10168400BDE8384000F050B8013C55F82430984784
:10169400F5E700BF60170008641700082DE9F0475C
:1016A400DFF86CA00646DAF8000098460F4691462B
:1016B400FFF7CEFF174B1C680CB9174C1C6065680C
:1016C400DAF800001F2D05DDFFF7C3FF4FF0FF30F0
:1016D400BDE8F0879EB104EB85010122C1F8889032
:1016E400D4F88831AA401343C4F88831022EC1F8D3
:1016F400088102BFD4F88C311343C4F88C316B1CBD
:101704000235636044F82570FFF7A3FF0020DFE78C
:101714000C0000208C00002090000020F8B500BFD1
:10172400F8BC08BC9E467047F8B500BFF8BC08BCBE
:041734009E46704716
:101738000000000001020304000000000000000097
:08174800010203040607080971
:08175000E4EAFF7F0100000044
:0817580059160008E901000820
:04176000C5010008B7
:101764000024F400010000001000000088000020A4
:040000050800075593
:00000001FF
