:020000040800F2
:10000000000002209D0800088108000883080008FD
:10001000850800088708000889080008000000001B
:100020000000000000000000000000008B08000835
:100030008D080008000000008F08000891080008E3
:10004000ED080008ED080008ED080008ED080008BC
:10005000ED080008ED080008ED080008ED080008AC
:10006000ED080008ED080008ED080008ED0800089C
:10007000ED080008ED080008ED080008ED0800088C
:10008000ED080008ED080008ED080008ED0800087C
:10009000ED080008ED080008ED080008ED0800086C
:1000A000ED080008ED080008ED080008ED0800085C
:1000B000ED080008ED080008ED080008ED0800084C
:1000C000ED080008ED080008ED080008ED0800083C
:1000D000ED080008ED080008ED080008ED0800082C
:1000E000ED080008ED080008ED080008ED0800081C
:1000F000ED080008ED080008ED080008ED0800080C
:10010000ED080008ED080008ED080008ED080008FB
:10011000ED080008ED080008ED080008ED080008EB
:10012000ED080008ED080008ED080008ED080008DB
:10013000ED0800080000000000000000ED080008C5
:10014000ED080008ED080008ED080008ED080008BB
:10015000ED080008ED080008ED080008ED080008AB
:10016000ED080008ED080008ED080008ED0800089B
:10017000ED080008ED080008ED0800080000000088
:1001800000000000ED080008000000000000000072
:10019000ED0800080000000000000000ED08000865
:1001A000000000000000000000000000ED08000852
:1001B000ED080008ED080008ED080008ED0800084B
:0401C000ED0800083E
:1001C40010B5054C237833B9044B13B10448AFF38D
:1001D40000800123237010BD1000002000000000E7
:1001E4005812000808B5034B1BB103490348AFF389
:1001F400008008BD00000000140000205812000810
:1002040080F0004002E000BF81F0004142001FBFC7
:100214005FEA410392EA030F7FEA226C7FEA236CD0
:100224006AD04FEA1262D2EB1363C1BFD2184140C5
:1002340048404140B8BF5B42192B88BF704710F05B
:10024400004F40F4000020F07F4018BF404211F0FE
:10025400004F41F4000121F07F4118BF494292EA66
:10026400030F3FD0A2F1010241FA03FC10EB0C0092
:10027400C3F1200301FA03F100F0004302D549421F
:1002840060EB4000B0F5000F13D3B0F1807F06D3CC
:1002940040084FEA310102F10102FE2A51D2B1F1C4
:1002A400004F40EBC25008BF20F0010040EA0300B9
:1002B4007047490040EB0000013A28BFB0F5000F39
:1002C400EDD2B0FA80FCACF1080CB2EB0C0200FAEF
:1002D4000CF0AABF00EBC25052421843BCBFD0403E
:1002E4001843704792F0000F81F4000106BF80F4B8
:1002F40000000132013BB5E74FEA41037FEA226C7B
:1003040018BF7FEA236C21D092EA030F04D092F045
:10031400000F08BF0846704790EA010F1CBF002079
:10032400704712F07F4F04D1400028BF40F00040D6
:10033400704712F100723CBF00F50000704700F0F6
:10034400004343F0FE4040F4000070477FEA22621D
:1003540016BF08467FEA23630146420206BF5FEAEE
:10036400412390EA010F40F4800070474FF00003EE
:1003740004E000BF10F0004348BF40425FEA000CB5
:1003840008BF704743F0964301464FF000001CE05D
:1003940050EA010208BF70474FF000030AE000BFB3
:1003A40050EA010208BF704711F0004302D54042F1
:1003B40061EB41015FEA010C02BF84460146002063
:1003C40043F0B64308BFA3F18053A3F50003BCFA7E
:1003D4008CF2083AA3EBC25310DB01FA02FC63442B
:1003E40000FA02FCC2F12002BCF1004F20FA02F232
:1003F40043EB020008BF20F00100704702F1200225
:1004040001FA02FCC2F1200250EA4C0021FA02F285
:1004140043EB020008BF20EADC70704753B94AB9C5
:10042400002908BF00281CBF4FF0FF314FF0FF30F8
:1004340000F088B9ADF1080C6DE904CE00F006F8BF
:10044400DDF804E0DDE9022304B070472DE9F0474C
:10045400089D8E4604468846002B4AD18A42174698
:1004640062D9B2FA82F64EB1C6F1200301FA06F857
:1004740020FA03F3B74043EA0808B4404FEA174EA2
:100484001FFA87FCB8FBFEF1230C0EFB118843EA2C
:10049400084301FB0CF29A4209D9FB1801F1FF3021
:1004A40080F0EA809A4240F2E78002393B449A1A8B
:1004B400A3B2B2FBFEF00EFB102243EA024300FBA0
:1004C4000CFC9C4509D9FB1800F1FF3280F0D68062
:1004D4009C4540F2D3803B44023840EA0140A3EB00
:1004E4000C0300211DB1F3400022C5E90032BDE830
:1004F400F0878B4205D90DB1C5E9000100210846FA
:10050400F5E7B3FA83F1002946D1734502D3824259
:1005140000F20581841A6EEB030201209046002D3F
:10052400E5D0C5E90048E2E7002A00F09080B2FA7D
:1005340082F6002E40F0A4808A1A030C4FEA174E6C
:1005440080B2BCB20121B2FBFEFC0EFB1C2243EACA
:10055400024304FB0CF29A4207D9FB180CF1FF3852
:1005640002D29A4200F2E080C4469B1AB3FBFEF228
:100574000EFB123340EA034302FB04F49C4207D906
:10058400FB1802F1FF3002D29C4200F2CA800246FC
:100594001B1B42EA0C40A5E7C1F120068B4022FA5E
:1005A40006F71F430EFA01F420FA06F32EFA06FEAC
:1005B4004FEA1749234300FA01F81FFA87FCBEFBF0
:1005C400F9F01C0C09FB10EE44EA0E4400FB0CFE8F
:1005D400A64502FA01F209D93C1900F1FF3A80F06C
:1005E4009C80A64540F2998002383C44A4EB0E045A
:1005F4001FFA83FEB4FBF9F309FB13444EEA0444E7
:1006040003FB0CFCA44508D93C1903F1FF3E80F020
:100614008280A4457FD9023B3C4443EA0040A4EBDA
:100624000C04A0FB02EC64457346E14662D35FD040
:100634005DB1B8EB030264EB090404FA06F622FA8E
:1006440001F31E43CC40C5E9006400214FE7B1FB30
:10065400F2FC010C41EA0E4180B240EA01423B4601
:1006640038463C46B846BE462026B1FBF7F1A2EB1D
:10067400080241EA0C4166E7014618E710462CE7F8
:10068400C6F120022EFA02F3B740B14020FA02F27A
:100694004FEA174E0A43B3FBFEF8BCB20EFB183305
:1006A400110C41EA034108FB04F9B04089454FEAC3
:1006B400104380B23ED9791808F1FF3C01D2894534
:1006C4001FD8A1EB0901B1FBFEF909FB04F80EFBED
:1006D400191192B242EA0142424529D2BA1809F1EB
:1006E400FF31C4D24245C2D2A9F102013A44BEE765
:1006F400F0459DD2BEEB02036CEB070C0138E146DA
:1007040096E7A7EB09094944A8F1020CB1FBFEF9ED
:1007140009FB04F8DBE773467FE7504666E70846C3
:10072400FDE63B44023A33E7ACF1020C3B441CE7E0
:1007340049469CE7A1EB0901C446B1FBFEF909FB5C
:1007440004F8C4E7704700BF82B0002100910B4B4E
:100754001A6B42F080021A631A6B02F08002009254
:10076400009A01911A6B42F001021A631B6B03F0A9
:1007740001030193019B02B0704700BF003802409F
:1007840072B6FEE700B595B03422002107A800F048
:10079400CFFC0023029303930493059306930093E1
:1007A400194A116C41F080511164126C02F08052AC
:1007B4000092009A019315490A6822F4404242F4D7
:1007C40080420A600A6802F440420192019A0222BD
:1007D400079201220A9210220B920D9307A800F0AF
:1007E40085FA68B90F2302930021039104910591BE
:1007F400069102A800F036F920B915B05DF804FBA3
:10080400FFF7BEFFFFF7BCFF003802400070004056
:1008140000B583B000F090F8FFF7B4FFFFF794FF42
:10082400064B019301980146FFF7F0FC0190044B3D
:1008340001934FF081430193F2E700BF0000A04011
:100844000000404082B0002100910B4B5A6C42F4EE
:1008540080425A645A6C02F480420092009A0191D8
:100864001A6C42F080521A641B6C03F0805301939B
:10087400019B02B0704700BF00380240FEE7FEE76C
:10088400FEE7FEE7FEE770477047704708B500F0E3
:100894006DF808BD70470000DFF834D0FFF7FAFFA9
:1008A4000C480D490D4A002302E0D458C4500433C7
:1008B400C4188C42F9D30A4A0A4C002301E013609D
:1008C4000432A242FBD300F03BFCFFF7A1FF7047C8
:1008D40000000220000000201000002094120008F4
:1008E40010000020C8010020FEE7000010B50446F7
:1008F4000E4B1A784FF47A73B3FBF2F30C4A106878
:10090400B0FBF3F000F09AF868B90F2C01D901207C
:100914000AE0002221464FF0FF3000F07FF8054B3B
:100924001C60002000E0012010BD00BF0400002076
:10093400000000200800002008B50B4B1A6842F4A0
:1009440000721A601A6842F480621A601A6842F4EB
:1009540080721A60032000F04FF80F20FFF7C6FFE3
:10096400FFF770FF002008BD003C0240034A1168F5
:10097400034B1B780B441360704700BF2C0000200E
:1009840004000020014B1868704700BF2C000020B1
:10099400002808DB0901C9B200F1604000F561409C
:1009A40080F80013704700F00F000901C9B2014B31
:1009B4001954704714ED00E000B500F00700C0F1D1
:1009C400070CBCF1040F28BF4FF0040C031D062BC9
:1009D4000FD9C31E4FF0FF3E0EFA0CF021EA0001BE
:1009E40099400EFA03FE22EA0E0241EA02005DF883
:1009F40004FB0023EEE70000074AD36823F4E06316
:100A04001B041B0C000200F4E060034343F0BF63CB
:100A140043F40033D360704700ED00E010B50446A2
:100A2400054BD868C0F30220FFF7C6FF01462046F5
:100A3400FFF7AEFF10BD00BF00ED00E00138B0F1DC
:100A4400807F0BD24FF0E0235861054AF02182F8F1
:100A540023100020986107221A6170470120704713
:100A640000ED00E0002800F09B8070B50D460446C0
:100A74004F4B1B6803F00F038B4208D2CBB24C4A96
:100A84001370136803F00F038B4240F08B802368CC
:100A940013F0020F17D013F0040F04D0454A9368E3
:100AA40043F4E0539360236813F0080F04D0414AE1
:100AB400936843F4604393603E4A936823F0F003E1
:100AC400A1680B439360236813F0010F32D063686D
:100AD400012B21D09A1E012A25D9364A126812F018
:100AE400020F61D033498A6822F0030213438B60FA
:100AF400FFF748FF06462F4B9B6803F00C03626820
:100B0400B3EB820F16D0FFF73DFF801B41F2883311
:100B14009842F0D9032042E0264A126812F4003FBA
:100B2400E0D101203BE0234A126812F0007FD9D1C2
:100B3400012034E01E4B1B6803F00F03AB4207D9BE
:100B4400EAB21B4B1A701B6803F00F03AB422DD1A2
:100B5400236813F0040F06D0164A936823F4E05375
:100B6400E1680B439360236813F0080F07D0114A20
:100B7400936823F46043216943EAC103936000F05E
:100B840021F80C4B9B68C3F303130B4AD35CD84086
:100B94000A4B18600A4B1868FFF7A8FE002070BDC6
:100BA400012070470120FAE70120F8E70120F6E769
:100BB400003C02400038024070120008000000208F
:100BC4000800002008B5464B9B6803F00C03082B73
:100BD40005D00C2B43D0042B7FD1424819E0404B65
:100BE4005A6802F03F025B6813F4800F12D03C4B4A
:100BF4005968C1F388113B480023A1FB0001FFF7AA
:100C04000DFC374B5B68C3F3014301335B00B0FB5E
:100C1400F3F008BD324B5868C0F388104FEA401C0B
:100C2400BCEB000C6EEB0E0E4FEA8E1343EA9C6392
:100C34004FEA8C11B1EB0C0163EB0E03DB0043EACA
:100C44005173C90011EB000C43F100039902002316
:100C54004FEA8C2041EA9C51FFF7E0FBD1E7204B9F
:100C64005A6802F03F025B6813F4800F10D01C4BEB
:100C74005968C1F388111B480023A1FB0001FFF749
:100C8400CDFB174B5B68C3F30273B0FBF3F0C0E713
:100C9400134B5868C0F388104FEA401CBCEB000C9F
:100CA4006EEB0E0E4FEA8E1343EA9C634FEA8C11EF
:100CB400B1EB0C0163EB0E03DB0043EA5173C90093
:100CC40011EB000C43F10003990200234FEA8C203E
:100CD40041EA9C51FFF7A2FBD3E7034899E700BF21
:100CE4000038024040787D010024F400002800F020
:100CF400018270B582B00446036813F0010F41D03D
:100D0400994B9B6803F00C03042B32D0964B9B68E1
:100D140003F00C03082B27D0934B9B6803F00C03C0
:100D24000C2B59D06368B3F5803F5BD0B3F5A02F8B
:100D34005ED08D4B1A6822F480321A601A6822F44D
:100D440080221A606368002B5CD0FFF71BFE054607
:100D5400854B1B6813F4003F14D1FFF713FE401BAF
:100D64006428F5D90320CCE17F4B5B6813F4800F32
:100D7400D2D07D4B1B6813F4003F03D06368002B73
:100D840000F0BA81236813F0020F60D0764B9B68A1
:100D940013F00C0F4AD0744B9B6803F00C03082B20
:100DA4003FD0714B9B6803F00C030C2B69D0E368B4
:100DB400002B75D06D4B01221A60FFF7E3FD054649
:100DC400694B1B6813F0020F61D1FFF7DBFD401B79
:100DD4000228F5D9032094E1634B5B6813F4800F78
:100DE400A0D0C6E7604A136843F480331360A9E7D0
:100DF4005D4B1A6842F480221A601A6842F4803209
:100E04001A609FE7FFF7BEFD0546574B1B6813F4B6
:100E1400003FB7D0FFF7B6FD401B6428F5D9032087
:100E24006FE1514B5B6813F4800FBAD14E4B1B68D2
:100E340013F0020F03D0E368012B40F05F814A4AAC
:100E4400136823F0F803216943EAC103136023689C
:100E540013F0080F49D06369002B33D0434B0122B0
:100E6400C3F8802EFFF78EFD05463F4B5B6F13F0F2
:100E7400020F3AD1FFF786FD401B0228F5D9032063
:100E84003FE1394B5B6813F4800F90D1CEE7364ACB
:100E9400136823F0F803216943EAC1031360D6E71A
:100EA400324B00221A60FFF76DFD05462E4B1B687E
:100EB40013F0020FCBD0FFF765FD401B0228F5D9D4
:100EC40003201EE1294B0022C3F8802EFFF75AFDB0
:100ED4000546254B5B6F13F0020F06D0FFF752FD5A
:100EE400401B0228F5D903200BE1236813F0040FFB
:100EF40076D01D4B1B6C13F0805F33D1002301931C
:100F0400194B1A6C42F080521A641B6C03F0805324
:100F14000193019B0125164B1B6813F4807F29D094
:100F2400A368012B3AD0052B3ED00F4B1A6F22F049
:100F340001021A671A6F22F004021A67A368002BD1
:100F44003CD0FFF71FFD0646074B1B6F13F0020F43
:100F540045D1FFF717FD801B41F288339842F3D93E
:100F64000320CEE00025D6E70038024000004742C7
:100F7400007000406B4A136843F480731360FFF7FA
:100F840001FD0646674B1B6813F4807FC8D1FFF749
:100F9400F9FC801B0228F5D90320B2E0624A136FE2
:100FA40043F001031367C9E75F4B1A6F42F0040271
:100FB4001A671A6F42F001021A67BFE7FFF7E2FCF3
:100FC4000646594B1B6F13F0020F08D0FFF7DAFCEB
:100FD400801B41F288339842F3D9032091E0EDB9A4
:100FE400A369002B00F08C804F4A926802F00C0237
:100FF400082A54D0022B17D04C4B00221A66FFF754
:10100400C1FC0446484B1B6813F0007F45D0FFF732
:10101400B9FC001B0228F5D9032072E0424A136C84
:1010240023F080531364DBE7404B00221A66FFF77A
:10103400A9FC05463C4B1B6813F0007F06D0FFF764
:10104400A1FC401B0228F5D903205AE0E369226A77
:101054001343626A43EA8213A26A5208013A43EADA
:101064000243E26A43EA0263226B43EA02732E4AB2
:1010740053602E4B01221A66FFF784FC04462A4B68
:101084001B6813F0007F06D1FFF77CFC001B0228CD
:10109400F5D9032035E0002033E0002031E0012BB6
:1010A40031D0214B5B6803F48001E26991422CD179
:1010B40003F03F02216A8A4229D1616A47F6C0726D
:1010C4001A40B2EB811F24D103F44031A26A5208C2
:1010D400013AB1EB024F1ED103F07062E16AB2EB48
:1010E400016F1AD103F0E043226BB3EB027F16D1F8
:1010F400002006E001207047012002E0012000E00A
:10110400002002B070BD0120FBE70120F9E70120B7
:10111400F7E70120F5E70120F3E70120F1E70120DB
:10112400EFE700BF00700040003802400000474273
:1011340002440346934200D1704703F8011BF9E7C8
:1011440070B50D4D0D4C641BA4100026A64209D1A8
:101154000B4D0C4C00F07EF8641BA4100026A64234
:1011640005D170BD55F8043B98470136EEE755F8B4
:10117400043B98470136F2E78812000888120008F9
:10118400881200089012000870477047024B13B190
:10119400024800F005B8704700000000B1110008D3
:1011A400002301461A46184600F014B838B5074D16
:1011B400074C641BA4101CB9BDE8384000F050B8BB
:1011C400013C55F824309847F5E700BF9012000819
:1011D400941200082DE9F047DFF86CA00646DAF80F
:1011E400000098460F469146FFF7CEFF174B1C6848
:1011F4000CB9174C1C606568DAF800001F2D05DD7A
:10120400FFF7C3FF4FF0FF30BDE8F0879EB104EB5A
:1012140085010122C1F88890D4F88831AA4013438B
:10122400C4F88831022EC1F8088102BFD4F88C3189
:101234001343C4F88C316B1C0235636044F8257089
:10124400FFF7A3FF0020DFE70C000020340000209C
:1012540038000020F8B500BFF8BC08BC9E467047B3
:0C126400F8B500BFF8BC08BC9E467047FF
:101270000000000000000000010203040607080946
:08128000D0F1FF7F0100000026
:0812880091110008E9010008C2
:04129000C50100088C
:101294000024F400010000001000000030000020D1
:040000050800089D4A
:00000001FF
